:100000000C94AA060C94D2060C94D2060C94D20638
:100010000C94D2060C94D2060C94DE240C94D206D6
:100020000C94D2060C94D2060C94D2060C94D206F0
:100030000C94D2060C94D2060C94D2060C94D206E0
:100040000C9494240C94D2060C9462240C943C24BA
:100050000C94D2060C94D2060C94D2060C94D206C0
:100060000C94D2060C94D2062920007E003E202853
:10007000002076616C75653D00206D61783D002043
:100080006D696E3D003C696E70757420636C6173C0
:10009000733D2773206E27207265717569726564E0
:1000A00020747970653D6E756D626572206E616D4C
:1000B000653D003A3C2F6C6162656C3E3C6469763C
:1000C0003E003C64697620636C6173733D723E3C14
:1000D0006C6162656C3E003C2F627574746F6E3E9D
:1000E0003C62723E003E002076616C75653D0020EA
:1000F0003C627574746F6E206E616D653D003C2FBF
:100100006469763E3C2F6469763E003C2F737061D3
:100110006E3E003E003C7370616E2069643D00528B
:1001200054552053657474696E6773005443502F9F
:100130005544502053657474696E677300495020AC
:1001400053657474696E6773004D6F6462757320D4
:100150005374617475730053797374656D20496EBF
:10016000666F003C62723E0020496E76616C696485
:10017000205443502F554450205265717565737457
:100180000020496E76616C69642052545520526596
:1001900073706F6E73650020526573706F6E736558
:1001A0002054696D656F75740020536C617665200D
:1001B0004661696C656420746F20526573706F6E60
:1001C000642028436F646520313129002047617421
:1001D00065776179204F7665726C6F616465642024
:1001E00028436F6465203130290020536C617665A7
:1001F00020526573706F6E6465642077697468203F
:100200004572726F722028436F64657320317E38A7
:10021000290020536C61766520526573706F6E649F
:10022000656400205363616E6E696E672E2E2E3CEE
:1002300062723E006800205443503C62723E0020CF
:100240005544503C62723E0020726571756573744E
:100250007300202F20002062797465733C62723E27
:1002600000202F200020627974657300202B006825
:1002700000272064697361626C656420636C61733C
:10028000733D693E003C696E7075742076616C75D3
:10029000653D27000D0A25780D0025780D0000002A
:1002A0000008000201000003040700000000000035
:1002B0000000495020416464726573730047656EA5
:1002C0006572617465204E6577204D4143003A00A8
:1002D0004D414320416464726573730045746865E1
:1002E000726E657420536F636B65747300556E6B2B
:1002F0006E6F776E005735353030005735323030FD
:100300000057353130300045746865726E65742071
:100310004368697000205772697465204379636C83
:10032000657300454550524F4D204865616C7468B7
:10033000005265626F6F740041726475696E6F2060
:10034000556E6F004D6963726F636F6E74726F6C80
:100350006C6572004C6F61642044656661756C74F5
:100360002053657474696E6773002E0053572056CE
:10037000657273696F6E005363616E20536C6176B2
:100380006573004D6F6462757320536C617665739D
:10039000004D6F64627573204D61737465727300F4
:1003A0005265736574205374617473004D6F646299
:1003B0007573205374617469737469637300526553
:1003C000717565737473205175657565004D6F6443
:1003D0006275732052545520526573706F6E736549
:1003E000003C2F666F726D3E3C666F726D206D65CE
:1003F00074686F643D706F73743E00436C65617226
:1004000000682028776974686F7574204352432907
:10041000203C696E70757420747970653D737562E7
:100420006D69742076616C75653D53656E643E0040
:10043000273E00206D696E6C656E6774683D3220E2
:100440006D61786C656E6774683D3220636C6173B2
:10045000733D69207061747465726E3D275B612D18
:1004600066412D462662736F6C3B645D2B272076B8
:10047000616C75653D2700207265717569726564F0
:10048000003C696E707574206E616D653D004D6F46
:10049000646275732052545520526571756573748A
:1004A000002E003E0020636C6173733D277020694D
:1004B00027207265717569726564206D61786C655D
:1004C0006E6774683D33207061747465726E3D2789
:1004D0005E282662736F6C3B647B312C327D7C31ED
:1004E0002662736F6C3B642662736F6C3B647C3274
:1004F0005B302D345D2662736F6C3B647C32355B00
:10050000302D355D2924272076616C75653D003CD2
:10051000696E707574206E616D653D00476174652C
:10052000776179005375626D61736B005374617408
:10053000696320495000736563004D6F6462757391
:10054000205443502049646C652054696D656F7573
:1005500074003C2F73656C6563743E003C2F6F70B4
:1005600074696F6E3E004D6F64627573205254550E
:10057000206F766572205443502F554450004D6FC4
:1005800064627573205443502F554450003E002040
:1005900073656C6563746564003C6F7074696F6E3D
:1005A0002076616C75653D003E003C73656C65634B
:1005B00074206E616D653D004D6F64627573204DF2
:1005C0006F64650000576562554920506F72740072
:1005D0004D6F646275732055445020506F727400E3
:1005E0004D6F646275732054435020506F727400D5
:1005F00000417474656D707473006D73005265739F
:10060000706F6E73652054696D656F7574006D73DE
:1006100000496E7465722D6672616D652044656C6B
:100620006179003C2F73656C6563743E2062697468
:10063000003C2F6F7074696F6E3E003E0020736542
:100640006C6563746564003C6F7074696F6E2076CE
:10065000616C75653D003E003C73656C656374209C
:100660006E616D653D0053746F7020426974730054
:100670003C2F73656C6563743E003C2F6F7074692A
:100680006F6E3E004F6464004576656E004E6F6E7F
:1006900065003E002073656C6563746564003C6FA3
:1006A0007074696F6E2076616C75653D003E003C2C
:1006B00073656C656374206E616D653D0050617299
:1006C000697479003C2F73656C6563743E206269C0
:1006D00074003C2F6F7074696F6E3E003E00207393
:1006E000656C6563746564003C6F7074696F6E203F
:1006F00076616C75653D003E003C73656C656374A6
:10070000206E616D653D00446174612042697473BF
:10071000003C2F73656C6563743E2062707300301B
:10072000303C2F6F7074696F6E3E003E0020736521
:100730006C6563746564003C6F7074696F6E2076DD
:10074000616C75653D003E003C73656C65637420AB
:10075000636C6173733D73206E616D653D00426132
:10076000756420526174650052656C6F6164696ED6
:10077000672E20506C6561736520776169742E2E39
:100780002E003C2F666F726D3E003C703E3C6469EB
:100790007620636C6173733D723E3C6C6162656C84
:1007A0003E3C696E70757420747970653D73756236
:1007B0006D69742076616C75653D2753617665209F
:1007C00026204170706C79273E3C2F6C6162656C0D
:1007D0003E3C696E70757420747970653D72657306
:1007E00065742076616C75653D43616E63656C3E32
:1007F0003C2F6469763E003C2F68343E3C666F7245
:100800006D206D6574686F643D706F73743E003C5D
:100810002F6469763E3C64697620636C6173733D36
:10082000633E3C68343E003C2F613E3C2F68343EC2
:10083000002E68746D3E003E3C6120687265663D26
:1008400000207374796C653D6261636B67726F75CC
:100850006E642D636F6C6F723A23464636363030C5
:10086000003C683420003E3C68313E4D6F64627548
:1008700073205254552026724172723B204D6F6492
:10088000627573205443502F55445020476174655E
:100890007761793C2F68313E3C64697620636C61F6
:1008A00073733D773E3C64697620636C6173733D7E
:1008B0006D3E00293B3C2F736372697074003E3CAF
:1008C0007363726970743E76617220613B636F6E10
:1008D000737420623D28293D3E7B666574636828F9
:1008E00027642E6A736F6E27292E7468656E2865DB
:1008F0003D3E7B72657475726E20652E6A736F6EF5
:1009000028293B613D307D292E7468656E28663D3F
:100910003E7B666F7228766172206920696E206660
:10092000297B696628646F63756D656E742E6765D3
:1009300074456C656D656E7442794964286929292E
:10094000646F63756D656E742E676574456C656D57
:10095000656E74427949642869292E696E6E6572E4
:1009600048544D4C3D665B695D3B7D7D292E63613E
:100970007463682828293D3E7B6966282161297BAC
:10098000616C6572742827436F6E6E6E656374695F
:100990006F6E206C6F737427293B613D317D7D291B
:1009A0007D3B736574496E74657276616C28282985
:1009B0003D3E6228292C003E3C7469746C653E4DB6
:1009C0006F64627573205254552026724172723BD7
:1009D000204D6F64627573205443502F554450204E
:1009E000476174657761793C2F7469746C653E3C2E
:1009F0007374796C653E626F64792C2E6D7B7061C7
:100A00006464696E673A3170783B6D617267696ED4
:100A10003A303B666F6E742D66616D696C793A731E
:100A2000616E732D73657269667D68312C68347BE5
:100A300070616464696E673A313070787D68312C1A
:100A40002E6D2C68347B6261636B67726F756E64A8
:100A50003A233030363741433B6D617267696E3AF5
:100A60003170787D2E6D2C2E637B686569676874A4
:100A70003A63616C63283130307668202D2037313D
:100A80007078297D2E6D7B6D696E2D776964746831
:100A90003A3230257D2E637B666C65782D67726FE8
:100AA000773A313B6F766572666C6F772D793A6174
:100AB00075746F7D2E772C2E727B646973706C61F8
:100AC000793A666C65787D612C68312C68347B637B
:100AD0006F6C6F723A77686974653B746578742DD2
:100AE0006465636F726174696F6E3A6E6F6E657D77
:100AF0002E632068347B70616464696E672D6C6559
:100B000066743A3330253B6D617267696E2D626F92
:100B100074746F6D3A323070787D2E727B6D6172B5
:100B200067696E3A3470787D6C6162656C7B776959
:100B30006474683A3330253B746578742D616C6950
:100B4000676E3A72696768743B6D617267696E2D92
:100B500072696768743A3270787D696E7075742C4A
:100B6000627574746F6E2C73656C6563747B6D61F4
:100B70007267696E2D746F703A2D3270787D2E73A6
:100B80007B746578742D616C69676E3A7269676809
:100B9000747D2E733E6F7074696F6E7B64697265CD
:100BA0006374696F6E3A72746C7D2E697B746578BC
:100BB000742D616C69676E3A63656E7465723B771C
:100BC000696474683A3363683B636F6C6F723A624E
:100BD0006C61636B7D2E6E7B77696474683A3863F1
:100BE000687D3C2F7374796C653E3C2F6865616449
:100BF0003E3C626F6479003A0020687474702D6521
:100C0000717569763D7265667265736820636F6E93
:100C100074656E743D353B75726C3D687474703AE2
:100C20002F2F003C21444F43545950452068746D88
:100C30006C3E3C68746D6C3E3C686561643E3C6D26
:100C400065746100485454502F312E3120323030B9
:100C5000204F4B0D0A436F6E74656E742D5479707E
:100C6000653A20746578742F68746D6C0D0A54723F
:100C7000616E736665722D456E636F64696E673A67
:100C8000206368756E6B65640D0A0D0A007D002295
:100C900000223A220022002C007B00485454502F9E
:100CA000312E31203230300D0A436F6E74656E7410
:100CB0002D547970653A206170706C696361746954
:100CC0006F6E2F6A736F6E0D0A5472616E73666574
:100CD000722D456E636F64696E673A206368756E46
:100CE0006B65640D0A0D0A00485454502F312E31A3
:100CF00020343034204E6F7420466F756E640D0AB8
:100D00000D0A343034204E6F7420666F756E6400A7
:100D10000D0A300D0A0000000000250028002B00FD
:100D200000000000240027002A0004040404040436
:100D3000040402020202020203030303030301028A
:100D40000408102040800102040810200102040859
:100D500010201E2511241FBECFEFD8E0DEBFCDBF6F
:100D600011E0A0E0B1E0ECEAF2E702C005900D92DC
:100D7000A23FB107D9F726E0A2EFB1E001C01D9272
:100D8000AE3FB207E1F716E0CAEAD6E004C0219709
:100D9000FE010E943E39C93AD107C9F70E945D267B
:100DA0000C9454390C94000090E0FC01E25CF24F8A
:100DB0002491865D924FFC018491882399F090E004
:100DC000880F991FFC01E05EF24FA591B491FC01E0
:100DD000EA5EF24F859194918FB7F894EC91E22BF3
:100DE000EC938FBF08958CBD9DBD0895DC0180916B
:100DF000F5069091F6060D9626E0833F9207E9F1FD
:100E00009093F6068093F506E091F506F091F606CC
:100E10008C91808311968C911197818312968C917D
:100E20001297828315964D915D916D917C911897E3
:100E3000458356836783708719968D919C911A9785
:100E4000928781871B968C911B9783871C968C9128
:100E500084878091F7068A30C1F4E091F306F0911F
:100E6000F406CF010D9626E0833F920749F0909358
:100E7000F4068093F30680E0089581E796E0C0CF02
:100E800081E796E096878587F6CF91E0980F90935B
:100E9000F706811108C08091F5069091F6069093AF
:100EA000F4068093F30681E0089520916D06309159
:100EB0006E062F5F3F4F96E02B36390709F13093CE
:100EC0006E0620936D06E0916D06F0916E068083AC
:100ED00080916F0690917006811521E09207C1F410
:100EE000E0916B06F0916C06CF01019626E08B36FF
:100EF000920749F090936C0680936B0680E008950A
:100F00002BE635E0DCCF8BE695E092838183F6CF4C
:100F10009C012F5F3F4F3093700620936F06892B03
:100F200041F480916D0690916E0690936C068093CB
:100F30006B0681E0089520916F0630917006E09174
:100F40006D06F0916E068217930758F4E0916B06D8
:100F5000F0916C06EB56F540E80FF91FFF27E559B5
:100F6000FA4F80810895FC01818D928D0895089536
:100F7000EF92FF920F931F93CF93DF938C017B012E
:100F8000D0E0C0E0F701EC0FFD1F6491662361F033
:100F9000D801ED91FC910190F081E02DC8010995F7
:100FA000892B11F02196EECFCE01DF91CF911F91C9
:100FB0000F91FF90EF900895AF92BF92CF92DF9282
:100FC000EF92FF920F931F93CF93DF936C017B01FE
:100FD0008B01040F151FEB015E01AE18BF08C0178F
:100FE000D10759F06991D601ED91FC910190F08102
:100FF000E02DC6010995892B79F7C501DF91CF91C5
:101000001F910F91FF90EF90DF90CF90BF90AF9026
:101010000895FC01538D448D252F30E0842F90E0FE
:10102000821B930B541710F0CF96089501970895E3
:10103000FC01918D828D981761F0A28DAE0FBF2FAC
:10104000B11D5D968C91928D9F5F9F73928F90E002
:1010500008958FEF9FEF0895FC01918D828D981771
:1010600031F0828DE80FF11D858D90E008958FEFAE
:101070009FEF0895FC01918D228D892F90E0805C77
:101080009F4F821B91098F739927089585E694E0FD
:101090000E943A0821E0892B09F420E0822F08956C
:1010A00080E090E0892B29F00E94460881110C9481
:1010B00000000895FC01A48DA80FB92FB11DA35AFB
:1010C000BF4F2C91848D90E001968F739927848F68
:1010D000A689B7892C93A089B1898C91837080648B
:1010E0008C93938D848D981306C00288F389E02D2C
:1010F00080818F7D80830895EF92FF920F931F93DD
:10110000CF93DF93EC0181E0888F9B8D8C8D9813BA
:101110001AC0E889F989808185FF15C09FB7F894C6
:10112000EE89FF896083E889F98980818370806412
:1011300080839FBF81E090E0DF91CF911F910F915D
:10114000FF90EF900895F62E0B8D10E00F5F1F4F6C
:101150000F731127E02E8C8D8E110CC00FB607FC7B
:10116000FACFE889F989808185FFF5CFCE010E9409
:101170005A08F1CFEB8DEC0FFD2FF11DE35AFF4F15
:10118000F0829FB7F8940B8FEA89FB898081806297
:10119000CFCFCF93DF93EC01888D8823B9F0AA8954
:1011A000BB89E889F9898C9185FD03C0808186FD22
:1011B0000DC00FB607FCF7CF8C9185FFF2CF808171
:1011C00085FFEDCFCE010E945A08E9CFDF91CF9184
:1011D000089590E0FC01E256FD4F2491FC01E25C91
:1011E000F24F3491FC01E65DF24FE491EE23C9F039
:1011F000222339F0233001F1A8F4213019F12230F3
:1012000029F1F0E0EE0FFF1FEA5EF24FA591B491D5
:101210008FB7F894EC91611126C030953E233C9332
:101220008FBF08952730A9F02830C9F0243049F73E
:10123000809180008F7D03C0809180008F778093A4
:101240008000DFCF84B58F7784BDDBCF84B58F7D01
:10125000FBCF8091B0008F778093B000D2CF809188
:10126000B0008F7DF9CF3E2BDACF3FB7F894809155
:10127000130290911402A0911502B091160226B5A6
:10128000A89B05C02F3F19F00196A11DB11D3FBFBE
:10129000BA2FA92F982F8827BC01CD01620F711D8D
:1012A000811D911D42E0660F771F881F991F4A9587
:1012B000D1F708958F929F92AF92BF92CF92DF9213
:1012C000EF92FF924B015C010E9435096B017C019A
:1012D0000E9435096C197D098E099F09683E73408B
:1012E00081059105A8F321E0821A9108A108B108AF
:1012F00088EEC80E83E0D81EE11CF11C8114910415
:10130000A104B10429F7FF90EF90DF90CF90BF9038
:10131000AF909F908F9008952FB7F89460910F022F
:101320007091100280911102909112022FBF0895C6
:10133000CF93DF93EC018C819D81DC01ED91FC91D9
:101340000480F581E02D09952A853B85009739F4C5
:1013500088859985821B930BDF91CF910895821B1D
:10136000930B97FFF9CF90E080E0F6CFCF93DF9318
:10137000DC011A964D915C914115510599F1EC01F2
:101380008C819D816E817F81DC01ED91FC910280D9
:10139000F381E02D09952A853B85281B390B3B8776
:1013A0002A87232BA9F0009799F030E020E04A85A6
:1013B0005B852417350760F4EE81FF81E20FF31F90
:1013C000DF01A80FB91F4C9140832F5F3F4FEFCF34
:1013D000EC81FD8182819381892B21F081E090E075
:1013E0009B838A83DF91CF910895AF92BF92CF9272
:1013F000DF92EF92FF920F931F93CF93DF938C01B5
:101400006B015A017B01D0E0C0E0CA15DB05B9F1E0
:10141000D8011A968D919C911B97892B09F5A501EE
:101420004C1B5D0B18968D919C9119974817590785
:10143000B8F014968D919C91B6016C0F7D1FDC0164
:10144000ED91FC910280F381E02DDF91CF911F910E
:101450000F91FF90EF90DF90CF90BF90AF900994E5
:10146000F70161917F01D801ED91FC910190F0812C
:10147000E02DC8010995892B11F02196C6CFCE0128
:10148000DF91CF911F910F91FF90EF90DF90CF9060
:10149000BF90AF900895FC01A681B78182859385A6
:1014A0009C012F5F3F4F33872287A80FB91F6C9392
:1014B00022853385808591852817390741F4CF012E
:1014C0000190F081E02D0680F781E02D099581E003
:1014D00090E00895FC0120812EBD9B01215031092F
:1014E00041F051810DB407FEFDCF4EB55EBD419375
:1014F000F5CF61507109860F971F0DB407FEFDCF20
:101500002EB5FC0120830895E0910C02F0910D02AC
:10151000808190910B02892B80830895E0910C02C9
:10152000F0910D02908180910B0280958923808338
:1015300008958EBD00000DB407FEFDCF8EB5089551
:10154000AF92BF92CF92DF92EF92FF920F931F93D1
:10155000CF93DF93CDB7DEB728970FB6F894DEBFF1
:101560000FBECDBF8C017B016A018091A90383333B
:10157000E1F45801A40EB51EA016B10609F46FC01F
:101580000E948E0A80EF0E94990A812F0E94990A78
:10159000802F0E94990A0F5F1F4FF70181917F01F1
:1015A0000E94990A0E94840AE7CF5B01A40EB51E2F
:1015B0008433C1F40E948E0A19830A838D2D8068BA
:1015C0008B83CC8264E070E0CE0101960E946A0AAF
:1015D000AE14BF0409F441C0F70181917F010E945C
:1015E000990AF6CF0E948E0A0F3F110509F028F4E0
:1015F00019820A8384E08B830CC017FD17C01982FF
:101600000A8333E0169507953A95E1F7007E0C6062
:101610000B8386E0C816D104A0F5F701DE0114960D
:10162000EA15FB0599F081918D93FACFC80126E068
:10163000969587952A95E1F7807E19830A8301158F
:10164000104C10F48461D7CF8C61D5CFB6016D5F9B
:101650007F4FCE0101960E946A0A0E94840AC60149
:1016600028960FB6F894DEBF0FBECDBFDF91CF91A5
:101670001F910F91FF90EF90DF90CF90BF90AF90B0
:10168000089563E070E0CE0101960E946A0AF701B6
:1016900081917F010E94990AAE14BF04C1F7DDCF8A
:1016A00090E02091A903233339F40C96982F990FD9
:1016B000990F990F80E008954896F8CFDA01E091EC
:1016C0000A02F0E0FE2FEE27E60FF71F90E0982FBA
:1016D0008827A901BD018E0F9F1F0C94A00ACF93EC
:1016E000DF9300D0CDB7DEB779836A8322E030E0A4
:1016F000AE014F5F5F4F60E170E00E945E0B0F90A4
:101700000F90DF91CF910895CF93DF9300D0CDB7A5
:10171000DEB779836A8322E030E0AE014F5F5F4F2E
:1017200064E070E00E945E0B0F900F90DF91CF910C
:101730000895CF93DF931F92CDB7DEB76983DC01A5
:10174000ED91FC910280F381E02D41E050E0BE017B
:101750006F5F7F4F09950F90DF91CF910895CF93E1
:10176000DF931F92CDB7DEB76983DC01ED91FC9169
:101770000280F381E02D41E050E0BE016F5F7F4FBA
:1017800009950F90DF91CF910895FC019485FB019D
:101790008485981303C081E0943008F080E00895B8
:1017A000CF93DF931F92CDB7DEB76983DC01ED9154
:1017B000FC910280F381E02D41E050E0BE016F5FBB
:1017C0007F4F09950F90DF91CF9108950895FF9273
:1017D0000F931F93CF93DF93EB01FC01178A168AB7
:1017E0002A81211109C02B81211106C02C812111D0
:1017F00003C02D81222301F141155105E9F08A0131
:10180000FC01F08C80E591E00E94F306AE014E5F92
:101810005F4F24E030E06CE070E08F2D0E945E0BA3
:10182000B8018F2D0E946F0B81E090E0DF91CF9186
:101830001F910F91FF90089580E0F7CFFC01AC015C
:101840004E5F5F4F80E0219190ED920F9A3040F40F
:101850008295807F8053820FE417F507A1F70895E2
:101860009FEB920F963020F48295807F8753F3CFC1
:101870009FE9920F963080F78295807F8755EBCF56
:10188000CF93DF93EC01683098F4E62FF0E0E55B4E
:10189000F34F0C943E39530C5F0C620C650C650CD5
:1018A000680C6B0C6E0C62E172E0CE010E94B8070E
:1018B00063E671E0CE01DF91CF910C94B8076AEE38
:1018C00071E0F3CF6CEC71E0F0CF69EA71E0EDCF3D
:1018D00067E971E0EACF61E871E0E7CF68E671E0BF
:1018E000E4CF633091F028F4613041F0623051F080
:1018F0000895643069F0653071F0089567E571E02E
:101900000C94B80769E471E0FBCF6DE371E0F8CFA8
:101910006CE271E0F5CF6FE171E0F2CF6EEF70E055
:101920000C94B8070F931F93CF93DF93EC018B01B7
:1019300062EC70E00E94B807B801CE010E94B807BF
:1019400063EB70E0CE01DF91CF911F910F910C946A
:10195000B8071092F401282F2F7090E034E095958D
:1019600087953A95E1F7382F2A3058F0295C209373
:10197000F3013A3040F0895C8093F20182EF91E00C
:101980000895205DF4CF805DF7CF2091430330911F
:101990004403A9014827CA0128E0AC01417055273A
:1019A00096958795452B21F051E0852750EA95279C
:1019B000215099F790934403809343030895CF9265
:1019C000DF92EF92FF921F93CF93DF93EC017B01A5
:1019D0008FEF9FEF909344038093430310E06B01DC
:1019E00082E0C81AD108812F90E08C159D0544F43F
:1019F0008C0F9D1FFC0180810E94C50C1F5FF3CFDF
:101A00009091430380914403CE0DDF1DFE01319779
:101A10002081281304C0229781E02881291380E0C7
:101A2000DF91CF911F91FF90EF90DF90CF900895BD
:101A3000FC01DB018D919C9111979183808312961B
:101A40008C911297828380ED91E094838383159625
:101A50004D915D916D917C91189745835683678375
:101A6000708719968D919C911A97928781871B9602
:101A70008C911B9783871C968C91848708950F9374
:101A80001F93CF93DF93CDB7DEB72D970FB6F894A2
:101A9000DEBF0FBECDBF8C016091F3067091F406DE
:101AA0008091F70681110FC0C8010E94180DC8016E
:101AB0002D960FB6F894DEBF0FBECDBFDF91CF914C
:101AC0001F910F910895CB010D969093F40680938A
:101AD000F306CE0101960E94180D8091F3069091B5
:101AE000F406835F964030F081E796E09093F40629
:101AF0008093F3068091F70681508093F706BE012C
:101B00006F5F7F4FC8010E94180DD1CFCF93DF9335
:101B1000CDB7DEB76A970FB6F894DEBF0FBECDBF64
:101B20006091F3067091F406CE010E960E94180D96
:101B3000898D86FD1092360383FF08C0E82FE77079
:101B4000F0E0E759FC4F90819150908387FF05C0EA
:101B500080913503815080933503588920916F0619
:101B60003091700680916B0690916C0640E054179E
:101B700071F02115310549F0019666E08B36960724
:101B800010F08BE695E0215031094F5FF0CF309394
:101B9000700620936F0690936C0680936B06CE01BF
:101BA00001960E943F0D6A960FB6F894DEBF0FBEF5
:101BB000CDBFDF91CF910895CF92DF92EF92FF9248
:101BC0000F931F93209118023091190240911A022D
:101BD00050911B02C0901802D0901902E0901A0296
:101BE000F0901B0244275527A9E6B0E90E94ED3882
:101BF0006701EE24FF24C60ED71EE81EF91EC09210
:101C00001802D0921902E0921A02F0921B02C090C0
:101C10000001D0900101E0900201F0900301A701C2
:101C2000960144275527A0E5B6E40E94ED388701C8
:101C300022273327060F171F281F391F0093000183
:101C40001093010120930201309303016091180267
:101C50007091190280911A0290911B02CB01772793
:101C60006627060F171F281F391FE5E4F3E00083DE
:101C7000118322831F910F91FF90EF90DF90CF90FF
:101C800008952091640330E0C90195958795982FB8
:101C9000937023FB882780F9890F54E035952795A9
:101CA0005A95E1F7237033272230310514F4895F08
:101CB0000895885F0895CF92DF92EF92FF92CF93BD
:101CC000C09164032091620330916303A4E6B0E005
:101CD0000E942F396B017C01E0917504F09176042C
:101CE00082E08083C11481EED806E104F104A1F002
:101CF00060E079E08DE390E0A70196010E94CB3887
:101D00002150310941095109569547953795279535
:101D1000211580E13807A8F0E0917504F091760470
:101D2000108260E874E88EE190E0A70196010E94BD
:101D3000CB382150310941095109569547953795BE
:101D40002795E0917104F09172043083E09173045F
:101D5000F0917404208310927D04E0917904F09155
:101D60007A04C083E0917704F091780480818061E7
:101D70008083E0917704F09178048081886080838B
:101D8000E0917704F0917804808180688083E0910D
:101D90007704F091780480818F7D808387E00E94B2
:101DA000D40660E087E0CF91FF90EF90DF90CF9076
:101DB0000C94E908CF93DF931F92CDB7DEB7698308
:101DC00041E050E0BE016F5F7F4F0E94A00A0F907C
:101DD000DF91CF910895682F90E080E00C94DA0EA7
:101DE00020910A0230E0322F2227260F371F90E081
:101DF000982F8827642F820F931F0C94DA0EFC0112
:101E0000768765870895DC01ED91FC91068CF78D4E
:101E1000E02D099591E089270895862F089581E0A6
:101E20008627089521E0FC018485843008F020E0B5
:101E3000822F0895FC01848595850895FC0184898D
:101E40009589089520ED31E0FC0131832083FB0169
:101E50004089518962897389FC0142835383648379
:101E600075830895DC01ED91FC91048CF58DE02DD6
:101E70000994089590E080E00895873FD8F5282FD1
:101E800026952695269530E08770E82FF0E0E857F4
:101E9000FE4F5081752F7095F901E653FC4F85E098
:101EA00090819723908381507F968111F9CF862F5F
:101EB00090E0F9017FE1679FE00DF11D1124E653E9
:101EC000FC4F2081252B20836430A1F0411112C0EA
:101ED000FC01EE0FFF1FEE0FFF1FE655FC4F808148
:101EE0009181A281B3810196A11DB11D808391834F
:101EF000A283B38308952F923F924F925F926F9285
:101F00007F928F929F92AF92BF92CF92DF92EF9289
:101F10000F931F93CF93DF93CDB7DEB72D970FB6F7
:101F2000F894DEBF0FBECDBF6C015B0129013A0101
:101F3000480100915F030023C9F00E94DF0C81116A
:101F400025C08091C6039091C703A091C803B091AA
:101F5000C9030196A11DB11D8093C6039093C703C9
:101F6000A093C803B093C90380E039C0FC0182810B
:101F70008111E7CF83818111E4CF84818111E1CF89
:101F80002581CB01069728171906D9F681E080270D
:101F9000082F000F080F000F10E0A01AB10A80915F
:101FA0005F0390E0880F991FA81AB90A1601200E46
:101FB000311EF10180819091F7069A3059F04091DD
:101FC0006F065091700620E031E0241B350B2A1576
:101FD0003B05E8F440E062E00E943D0F8AE02D9668
:101FE0000FB6F894DEBF0FBECDBFDF91CF911F912A
:101FF0000F91EF90DF90CF90BF90AF909F908F9018
:102000007F906F905F904F903F902F900895873F03
:1020100008F068C0282F26952695269530E0E82FF1
:10202000E770F0E0E857FE4F908126533C4FF901EE
:10203000E458FF4F40814923A9F08091B603909165
:10204000B703A091B803B091B9030196A11DB11DCA
:102050008093B6039093B703A093B803B093B903EA
:102060008BE0BDCF235A3F4FF90120819223D1F15C
:1020700040E064E00E943D0FF1018081811102C0C7
:102080006894E6F8E3FE08C0EE2DE770F0E0E7594B
:10209000FC4F80818F5F8083F601808189838181FD
:1020A0008A83AB8280ED91E09D838C834E825F8238
:1020B000688679869B868A86EC861D86CE01019687
:1020C0000E94F606E12C8E2D90E08A159B0590F477
:1020D0008C0D9D1DFC01E00FF11F80810E945507B2
:1020E000E394F1CF6894E7F8809135038F5F809394
:1020F0003503C2CF80916F06909170062091F60152
:102100003091F7012817390720F49093F701809355
:10211000F6018091F7069091F501981708F024CF09
:102120008093F50121CFDC0180ED91E08D939D93AB
:1021300084E0FB0101900D928A95E1F70895AF923A
:10214000BF92CF92DF92EF92FF920F931F93CF93A4
:10215000DF9300D000D0CDB7DEB78C016B017A01E0
:102160008091A9038333E9F45B016801C40ED51E95
:10217000C016D106A9F10E948E0A8FE00E94990A2A
:10218000812F0E94990A802F0E94990A0F5F1F4F8A
:1021900080E00E94990AF50181935F010E94840A00
:1021A000E7CF843369F50E948E0A19830A838F2D45
:1021B0008F778B83EC8264E070E0CE0101960E9401
:1021C0006A0AA70170E060E0C6010E944439E11488
:1021D000F10421F0B701C6010E946A0A0E94840A34
:1021E000C7010F900F900F900F90DF91CF911F912B
:1021F0000F91FF90EF90DF90CF90BF90AF90089538
:102200000E948E0A0F3F110509F030F419820A83EB
:102210001B8263E070E0D1CF17FD0BC019820A83E7
:1022200033E0169507953A95E1F7007E08600B8339
:10223000F0CFC80126E0969587952A95E1F7807E34
:1022400019830A830115104C18F480618B83E1CF48
:102250008861FCCFCF93DF931F92CDB7DEB720917B
:102260000A0230E0322F2227260F371F90E0982FE6
:10227000882741E050E0BE016F5F7F4F820F931FC0
:102280000E949F1089810F90DF91CF910895CF9385
:10229000C82F462F61E070E00E94F00E61E070E010
:1022A0008C2F0E942A118111F9CFCF910895CF93DD
:1022B000C82F80E591E00E94F30668E070E08C2F63
:1022C000CF910C944711CF93C82F80E591E00E94E5
:1022D000F30660E170E08C2FCF910C944711CF93FF
:1022E000DF93EC01888D843020F40E94631184E038
:1022F000888FDF91CF910895CF93FC01C08D80E549
:1023000091E00E94F30660E270E08C2F0E9447117A
:1023100062E070E08C2F0E942A1184FD16C062E0FA
:1023200070E08C2F0E942A1183FF0AC048E162E00E
:1023300070E08C2F0E94F00E80E090E0CF91089525
:1023400080E591E00E94F306E3CF40E162E070E0B7
:102350008C2F0E94F00E81E0F0CF63E070E00C94CF
:102360002A11CF93C82F80E591E00E94F3068C2FAD
:10237000CF910C94AD11EF92FF920F931F93CF93D7
:102380007C0101EA13E0C0E0F801219131918F0155
:10239000F701848195812817390729F0CF5FC43070
:1023A00099F780E006C08C2F0E94B1118431B1F7FB
:1023B00081E0CF911F910F91FF90EF900895CF93FF
:1023C000DF93EC018C858430D0F40E94B11184310C
:1023D00089F0882379F0883169F021E08C3159F453
:1023E000E881F9810084F185E02DCE01099521E095
:1023F000892B09F420E0822FDF91CF91089580E0AE
:10240000FBCFCF92DF92EF92FF92CF93DF93EC015D
:102410008C85843068F40E9457110E948C096B01EE
:102420007C018C850E94B111811109C084E08C87E8
:10243000DF91CF91FF90EF90DF90CF90089561E012
:1024400070E080E090E00E945A090E948C09AB0184
:10245000BC014C195D096E097F098D859E85B0E030
:10246000A0E0481759076A077B07D8F28C850E94BD
:102470006311DCCFCF93C82F0E94AD11873199F43F
:1024800068E070E08C2F0E9447110E948C0924E0C4
:10249000C29FF0011124E359FC4F60837183828352
:1024A0009383CF91089560E170E08C2FCF910C94CD
:1024B0004711CF93DF931F92CDB7DEB741E050E0D5
:1024C000BE016F5F7F4F90E080E00E949F10898186
:1024D0000F90DF91CF910895CF93DF93C4E1D0E0C7
:1024E0000E945912882361F061E070E080E090E082
:1024F0000E945A092197A1F780E0DF91CF910895BA
:1025000081E0FBCF1F93CF93DF931F92CDB7DEB750
:10251000182F80E591E00E94F306812F0E94500B56
:1025200027E0129FF0011124EB57FC4F22813381E9
:10253000377041E050E0BE016F5F7F4F820F931F05
:102540000E949F1089810F90DF91CF911F91089574
:10255000FC01808D843040F4218D328D232B21F0BD
:102560000E94821290E008958FEF9FEF0895CF931D
:10257000DF93FC012485243028F08FEF9FEFDF915B
:10258000CF910895EC010190F081E02D0084F18558
:10259000E02D0995892B89F38C850E94821290E0A9
:1025A000EECF3F924F925F926F927F928F929F9267
:1025B000AF92BF92CF92DF92EF92FF920F931F9351
:1025C000CF93DF931F92CDB7DEB74C016B015A0159
:1025D0002901809109028111ADC060E372E080E0C1
:1025E00090E00E945A093FB6F89434E3E32E3DE0B0
:1025F000F32E48E4642E4DE0742E80910802811180
:1026000022C0F7018491F3019491E82FF0E0EE0FDE
:10261000FF1FE05EF24FA591B4918C91982321F4B5
:1026200061E08AE00E94E9088AE00E94D4068CB545
:1026300080618CBD8CB580648CBD8DE00E94D40619
:102640008BE00E94D406809108028F5F809308027D
:102650003FBEF701E490EE2DF0E0EE0FFF1FEA5EC3
:10266000F24F8591949190930D0280930C02F301A7
:10267000649060920B028AE00E94D4060E94840A51
:1026800080E591E00E94F30684E38093A90380E84B
:102690000E94EB0E0E946C12882309F47FC088E030
:1026A0000E94EB0E0E945912883009F077C080E139
:1026B0000E94EB0E0E945912803109F06FC080E039
:1026C0000E94EB0E0E945912F82E811167C041E062
:1026D00050E0BE016F5F7F4F8FE190E00E949F103E
:1026E0008981833009F05AC080E480930A0242E075
:1026F0006EE170E08F2D0E94F00E42E06FE170E01D
:102700008F2D0E94F00EF394F4E0FF12F0CF40E022
:102710006EE170E08F2D0E94F00E40E06FE170E0FE
:102720008F2D0E94F00EF39488E0F812F0CF81E034
:102730008093090280E591E00E94F30646E050E0B4
:10274000B40189E090E00E94A00AB6016E5F7F4F5D
:1027500044E050E08FE090E00E94A00AB2016E5F7A
:102760007F4F44E050E081E090E00E94A00AB80171
:102770006E5F7F4F44E050E085E090E00E94A00A49
:10278000F50182819381A481B58180932E05909378
:102790002F05A0933005B09331055FC087E3809388
:1027A000A90380E80E94EB0E0E946C12882331F18D
:1027B00088E00E94EB0E0E9459128830F9F480E103
:1027C0000E94EB0E0E945912F82EE0E18E1316C003
:1027D00080E00E94EB0E0E94591281110FC041E06F
:1027E00050E0BE016F5F7F4F89E390E00E949F1031
:1027F0008981843019F4F0920A0299CF83E380939F
:10280000A90380E80E94EB0E0E946C12882319F144
:1028100080E10E94EB0E0E9459128031E1F482E1C6
:102820000E94EB0E0E9459128231A9F480E00E94AE
:10283000EB0E0E94591281110EC084E080930A02AF
:1028400065E58BE190E00E94DA0E65E58AE190E0B3
:102850000E94DA0E6CCF1092A9030F90DF91CF91F6
:102860001F910F91FF90EF90DF90CF90BF90AF90AE
:102870009F908F907F906F905F904F903F900895C2
:10288000DA01E0910A02F0E0FE2FEE27E60FF71FD3
:1028900090E0982F8827A901BD018E0F9F1F0C94EF
:1028A0009F108F929F92AF92BF92CF92DF92EF9242
:1028B000FF921F93CF93DF93CDB7DEB72C970FB660
:1028C000F894DEBF0FBECDBF2091A90314E02223F0
:1028D00029F16B017C0180E591E00E94F3065E0125
:1028E00027E0A20EB11C450110E0812F0E94AD111E
:1028F000F40181934F01882349F11F5F1430A9F738
:1029000010E0F50181915F018D31D9F08831C9F076
:102910008A518230B0F01F5F143099F7812F2C96C6
:102920000FB6F894DEBF0FBECDBFDF91CF911F91E0
:10293000FF90EF90DF90CF90BF90AF909F908F90DF
:10294000089560E170E0812F0E944711A12EB12C03
:10295000F501EE0FFF1FEF55FC4F1182108283EE41
:1029600093E00197F1F742E870E060E0812F0E9468
:10297000F00E4FEF62E070E0812F0E94F00EB60182
:10298000C114D10491F48091090190910A0101963A
:102990008115F0EC9F0708F45CC090930A018093C6
:1029A00009016091090170910A01812F0E94840B35
:1029B00086E0EBE0F1E0DE01119601900D928A9540
:1029C000E1F7F70183818F778C8384818D83858103
:1029D0008E83A7014E5F5F4F24E030E06CE070E033
:1029E000812F0E945E0BB601812F0E946F0B26E0A3
:1029F00030E0AE014F5F5F4F66E070E0812F0E94D4
:102A00005E0B61E070E0812F0E94471127E02A9D54
:102A1000C0012B9D900D11249C012B573C4F790137
:102A2000F9011182108222E030E0AE01455F5F4F74
:102A300068E270E0812F0E9440148B859C85982766
:102A400089279827F701938382831682158214823F
:102A500065CF80E090ECA1CFCF92DF92EF92FF9212
:102A60000F931F93CF93DF9300D000D000D0CDB74A
:102A7000DEB78C016B017A01FC01808D843010F48B
:102A80000E94631180ED91E09A838983F60182812F
:102A90009381A481B5818B839C83AD83BE83B70171
:102AA000CE0101960E945114F801808F8430A0F469
:102AB000F586E486128E118E81E026960FB6F89484
:102AC000DEBF0FBECDBFDF91CF911F910F91FF9061
:102AD000EF90DF90CF90089580E0EFCFAF92BF925C
:102AE000CF92DF92EF92FF920F931F93CF93DF93DA
:102AF00000D000D000D0CDB7DEB7082F6B0180E545
:102B000091E00E94F3069E012F5F3F4F790159012A
:102B100010E0812F0E94AD11F50181935F018823A0
:102B200041F11F5F1430A9F710E0F70181917F0197
:102B30008D31D1F08831C1F08A518230A8F01F5F09
:102B4000143099F7812F26960FB6F894DEBF0FBE8A
:102B5000CDBFDF91CF911F910F91FF90EF90DF904C
:102B6000CF90BF90AF90089560E170E0812F0E94F8
:102B70004711E12EF12CF701EE0FFF1FEF55FC4F2F
:102B80001182108283EE93E00197F1F7402F70E0FD
:102B900060E0812F0E94F00E4FEF62E070E0812F25
:102BA0000E94F00EB601CD2889F480910901909120
:102BB0000A0101968115F0EC9F0798F190930A01A4
:102BC000809309016091090170910A01812F0E948F
:102BD000840B61E070E0812F0E94471127E02E9D59
:102BE000C0012F9D900D11249C012B573C4F790162
:102BF000F9011182108222E030E0AE014B5F5F4F9D
:102C000068E270E0812F0E9440148D819E81982798
:102C100089279827F701938382831682158214826D
:102C200091CF80E090ECCACFCF92DF92EF92FF92EB
:102C30001F93CF93DF93EC017B016A018C85843075
:102C400048F40E94B111882319F08C850E94571115
:102C500084E08C87F70182819381A481B5810097FC
:102C6000A105B10551F490E080E0DF91CF911F9173
:102C7000FF90EF90DF90CF9008958F3F9F4FAF4F21
:102C8000BF4F89F38091A903811103C084E08C8731
:102C9000EACF70E060E081E20E946E15182F8C8709
:102CA000843008F780E591E00E94F306A7014E5FAB
:102CB0005F4F24E030E06CE070E0812F0E945E0BFB
:102CC000B601812F0E946F0B64E070E0812F0E949B
:102CD00047110E948C096B017C018C850E94B11107
:102CE000873109F18C31F9F0882309F4BCCF0E94B7
:102CF0008C09AB01BC014C195D096E097F098D85FA
:102D00009E85B0E0A0E084179507A607B70738F0C6
:102D100061E070E080E090E00E945A09DECF8C858F
:102D20000E946311B3CF81E090E09FCF0F931F9378
:102D3000CF93DF93EC018B01888D843010F40E94D7
:102D400063118091A903811107C094E0988FDF91EE
:102D5000CF911F910F910895B80182E00E946E15E6
:102D6000888F843030F41D870C871A8E198E81E08D
:102D7000EECF80E0ECCF0F931F93CF932091A90368
:102D8000222349F18C01FC016481758181E20E945A
:102D90006E15C82F8430F8F480E591E00E94F306A8
:102DA0008C2F0E94AD11833131F08C2FCF911F9168
:102DB0000F910C94571162E070E08C2F0E94471124
:102DC000F80184819581EC2FF0E0EE0FFF1FEF55A5
:102DD000FC4F91838083CF911F910F910895EF92C3
:102DE000FF920F931F93CF93DF93CDB7DEB76E970C
:102DF0000FB6F894DEBF0FBECDBF8FE00E94D406A1
:102E000060E08FE00E94E90869E170E080E090E016
:102E10000E945A0961E08FE00E94E90864EF71E0C6
:102E200080E090E00E945A09809111019091120176
:102E3000A0911301898F9A8FAB8F85E4E82E83E0F0
:102E4000F82EF70180819181A2818C8F9D8FAE8FAA
:102E50006CE473E0CE0143960E94931060E573E04A
:102E6000CE010D960E94931080ED91E098878F839C
:102E700019861A861B861C8668E473E0CE010196CB
:102E80000E9493108E010D5E1F4F9E01235F3F4FE6
:102E9000AE01495F5F4FBE016F5F7F4FCE01499624
:102EA0000E94D112198282E38A8342E050E0BE017F
:102EB0006F5F7F4F87E190E00E94A00A63E089E1A5
:102EC00090E00E94DA0EF70184899589EAE4F5E042
:102ED0001382128295838483F701808D918DE4E4BF
:102EE000F5E01382128295838483F70166897789DE
:102EF00080E595E00E9496168AE495E00E94BB1654
:102F000084E495E00E94BB166E960FB6F894DEBF7F
:102F10000FBECDBFDF91CF911F910F91FF90EF902A
:102F200008957F928F929F92AF92BF92CF92DF923D
:102F3000EF92FF920F931F93CF93DF9300D0CDB703
:102F4000DEB7782E8B014A01590122E030E0AE0154
:102F50004F5F5F4F64E270E00E944014E980FA80A6
:102F6000FE24EF24FE24E00EF11E970137704091FD
:102F7000A903072D10E0433309F042C0085F1F4F3B
:102F8000102F0027110F110F110FC901800F911F72
:102F90004733C9F1A9014A0D5B1D4130584098F1F2
:102FA00060E078E06B01C21AD30AA601B4010E9466
:102FB000A00AA5014C195D09B4016C0D7D1DC80165
:102FC0000E94A00AEA0CFB1CF982EA8222E030E0AF
:102FD000AE014F5F5F4F64E270E0872D0E945E0B91
:102FE0000F900F90DF91CF911F910F91FF90EF9075
:102FF000DF90CF90BF90AF909F908F907F9008957B
:10300000005F1F4FBDCFA501B401DACFEF92FF9251
:103010001F93CF93DF9300D0CDB7DEB7182F22E0F8
:1030200030E0AE014F5F5F4F60E270E00E944014FD
:10303000E980FA80FE24EF24FE2422E030E0AE0195
:103040004F5F5F4F60E270E0812F0E9440148981E2
:103050009A81982789279827E816F90689F487E046
:10306000189FF0011124EB57FC4FF582E482C70151
:103070000F900F90DF91CF911F91FF90EF900895E7
:103080007C01DBCF1F93CF93DF93182F80E591E076
:103090000E94F306812F0E940618EC01812F0E94E6
:1030A000AD11873121F08C3111F0D0E0C0E0CE01BC
:1030B000DF91CF911F910895CF93DF93EC018C8521
:1030C000843060F40E94B111873111F08C3131F4F9
:1030D0008C850E9442188115984088F3DF91CF912A
:1030E0000895FC018485843010F40C94421890E01B
:1030F00080E00895CF92DF92EF92FF921F93CF93DB
:10310000DF93182F7B01EA014130584010F0C0E0F6
:10311000D8E080E591E00E94F306812F0E94061816
:103120006C01812F0E94AD11873111F08C3121F596
:10313000CC16DD0670F380E591E00E94F3069E0157
:10314000A70170E060E0812F0E94911760E270E0BB
:10315000812F0E94471162E070E0812F0E942A11A6
:1031600084FD0DC0812F0E94AD118823B9F080E548
:1031700091E00E94F306EFCFD0E0C0E0DCCF40E169
:1031800062E070E0812F0E94F00ECE01DF91CF91BE
:103190001F91FF90EF90DF90CF900895D0E0C0E0B6
:1031A000F4CF0F931F93CF93DF938C01EA01FC01BF
:1031B0008485843048F40E947A18892B39F481E0A0
:1031C00090E0F80193838283D0E0C0E0CE01DF91EC
:1031D000CF911F910F9108959F92AF92BF92CF927E
:1031E000DF92EF92FF920F931F93CF93DF938C01A7
:1031F0005B01942EE52EFC01C688D788F08C80E513
:1032000091E00E94F3068F2D0E940618C92DDE2D35
:103210008C179D0708F4EC019E01A501B6018F2DC6
:103220000E949117F801868997898C0F9D1F978BB3
:10323000868BCE01DF91CF911F910F91FF90EF9080
:10324000DF90CF90BF90AF909F900895FF920F9323
:103250001F93CF93DF9300D0CDB7DEB7F82E22E0D7
:1032600030E0AE014F5F5F4F66E270E00E944014B5
:1032700009811A8110270127102722E030E0AE01D2
:103280004F5F5F4F66E270E08F2D0E94401489818E
:103290009A819827892798270817190749F4C801A0
:1032A0000F900F90DF91CF911F910F91FF90089594
:1032B0008C01E3CF1F93CF93DF93182F87E0189FE4
:1032C000E0011124CB57DC4F88819981009761F48C
:1032D00080E591E00E94F306812F0E9426192E813D
:1032E000821B910999838883DF91CF911F91089563
:1032F0007F928F929F92AF92BF92CF92DF92EF9286
:10330000FF920F931F93CF93DF938C015B017A01A0
:103310008091A903882309F465C081EAC82E83E05F
:10332000D82E4601712CC0E0D4012D913D914D0164
:10333000F801848195812817390799F48C2F0E9410
:10334000B111D82F873119F08C3109F03FC08C2F83
:103350000E945A19892B29F4DC3119F48C2F0E9410
:103360005711CF5FC43001F7711008C0D801ED913B
:10337000FC910084F185E02DC8010995C0E0F601BB
:10338000219131916F01D80114968D919C9128174C
:10339000390751F48C2F0E94B111873129F4A7010C
:1033A000B5018C2F0E947A18CF5FC43041F7C70156
:1033B000DF91CF911F910F91FF90EF90DF90CF9011
:1033C000BF90AF909F908F907F900895843139F097
:1033D0008111C7CFF401329711821082C2CF7724B6
:1033E0007394BFCFF12CE12CE2CFFC0184858430B3
:1033F00010F40C945A1990E080E008954F925F9277
:103400007F928F929F92AF92BF92CF92DF92EF9274
:10341000FF920F931F93CF93DF9300D0CDB7DEB70A
:10342000782E6B014A01A82EB12C27E0829FC001A3
:103430001124FC01EB57FC4F7F010081118180E5D5
:1034400091E00E94F3060815190554F4872D0E9497
:103450002619F70126818C01021B110911830083B3
:103460000115110519F5872D0E94AD11843159F010
:10347000882349F001E010E08C3111F410E000E005
:10348000119501951109C8010F900F90DF91CF910F
:103490001F910F91FF90EF90DF90CF90BF90AF9072
:1034A0009F908F907F905F904F9008958016910627
:1034B0000CF4840187E08A9DF0018B9DF00D1124AE
:1034C000EB57FC4FE280F380C114D10451F1270186
:1034D000F7E05F22872D0E94500B840D951D2091EF
:1034E000A903273309F453C09801240D351D213059
:1034F000384008F44CC020E038E0490184189508B1
:10350000A401B6010E949F102601480C591C6801B5
:10351000C818D908872D0E94500BA601B2010E943D
:103520009F10E00EF11E87E08A9DF0018B9DF00D4B
:103530001124EB57FC4FF382E28220813181201B62
:10354000310B318320838681800F912F911D8A3F1B
:10355000910510F4232BF1F487E08A9DF0018B9DF7
:10356000F00D1124EB57FC4F1682F982EA8222E01B
:1035700030E0AE014F5F5F4F68E270E0872D0E9440
:103580005E0B60E470E0872D0E9447117CCFA8019C
:10359000B601C5CF868377CFCF93DF93FC01218D12
:1035A000328D2115310529F48FEF9FEFDF91CF91F7
:1035B0000895EC01808D4217530708F0A9010E947D
:1035C000FE191816190684F7298D3A8D281B390B18
:1035D0003A8F298FEBCF0F931F93CF93DF931F92D7
:1035E000CDB7DEB7FC01218D328D232B41F48FEF57
:1035F0009FEF0F90DF91CF911F910F9108958C0154
:1036000041E050E0BE016F5F7F4FFC01808D0E9462
:10361000FE19181619065CF7F801818D928D019735
:10362000928F818F898190E0E4CF0F931F93CF9386
:10363000DF93CDB7DEB728970FB6F894DEBF0FBE85
:10364000CDBF8C01D80159964D915C915A97411587
:10365000510551F0ED91FC91048CF58DE02D70E059
:1036600060E0C8010995EECFF801808D0E945A19DB
:10367000892BB1F148E050E0BE016F5F7F4FD80168
:1036800058968C910E94FE1918161906F4F4D80168
:10369000509684E0FE01319601900D928A95E1F7F3
:1036A0008D8190E0982F88272E81820F911DF8013F
:1036B000958B848B8F81282F30E0322F22278885AD
:1036C000820F932F911D928F818F28960FB6F894B9
:1036D000DEBF0FBECDBFDF91CF911F910F91089537
:1036E00090E080E0F2CF4F925F926F927F928F9244
:1036F0009F92AF92BF92CF92DF92EF92FF920F9381
:103700001F93CF93DF93CDB7DEB763970FB6F894CF
:10371000DEBF0FBECDBF7C016B013A01FB0120E093
:1037200090E080E06AE03191332309F461C040ED1C
:10373000430F4A3008F04DC0689FA001699F500DAB
:103740001124CA01C097830F911D37FD9A958F3FB1
:10375000910549F340F3F7014281538164817581FA
:1037600080913A0590913B05A0913C05B0913D05B3
:10377000481759076A077B0709F40DC28701085FDC
:103780001F4F0E948C096F7077277C5FC8010E94D1
:103790009616813009F004C280ED91E09A83898306
:1037A000F70182819381A481B5818B839C83AD8352
:1037B000BE8345E350E0BE016F5F7F4FC8010E94AA
:1037C000E70B892BA9F5D12CC12CC8010E946F11E0
:1037D00017C03E3209F0BFCF233009F4BCCFD3016C
:1037E000A20FB11D12968C932F5F90E080E09BCFCB
:1037F000233009F0B0CFF3018583CC24C394D12CBE
:10380000C60163960FB6F894DEBF0FBECDBFDF9141
:10381000CF911F910F91FF90EF90DF90CF90BF90CD
:10382000AF909F908F907F906F905F904F90089592
:103830000E948C09F7017783668342E050E0B7016C
:103840006A5F7F4FC8010E94EC1881E090E09A8384
:10385000898342E050E0BE016F5F7F4FC8010E9444
:10386000EC1880E091E09A83898342E050E0BE0149
:103870006F5F7F4FC8010E94EC181A82198242E0E4
:1038800050E0BE016F5F7F4FC8010E94EC1842E01C
:1038900050E0BE016F5F7F4FC8010E94EC1842E00C
:1038A00050E0BE016F5F7F4FC8010E94EC185601C7
:1038B000F6018081882301F16501F60181912F01D4
:1038C000882311F08E32B1F446018A189B0818142F
:1038D000190474F48D8641E050E0BE01635F7F4FB0
:1038E000C8010E94EC18A401B501C8010E94EC189F
:1038F0005201DECF6201E1CF1D8641E050E0BE0102
:10390000635F7F4FC8010E94EC18C12CDD24D39463
:10391000DA82C98242E050E0BE016F5F7F4FC8018A
:103920000E94EC18DA82C98242E050E0BE016F5F6B
:103930007F4FC8010E94EC18C8010E947C11892B9E
:1039400009F441CFF3E0AF2EB12C230122E0420E67
:10395000511CD4C0F7014281538164817581808DEF
:10396000918DA28DB38D481759076A077B0709F01F
:1039700008C1848D958DC59709F003C181A192A1DD
:103980005DEFC52EDD24DA940C970CF4ADC04CE04D
:1039900050E0BE016F5F7F4FC8010E94CC1A8B813F
:1039A0009C819827892798279A8B898BF7014681D4
:1039B000578129813A814217530709F0E7C097FFE1
:1039C000E5C08F7092703BEFC32EDD24DA94892B13
:1039D00009F08AC06F8078847624672476242AEFE1
:1039E000C22EDD24DA946114710409F47DC0D12C57
:1039F000C12C8D819E81982789279827C816D906C2
:103A0000F8F441E050E0BE01635F7F4FC8010E94BF
:103A1000CC1A4D85442331F050E070E060E0C801DD
:103A20000E94CC1A8D858111ECCF44E050E070E00B
:103A300060E0C8010E94CC1AFFEFCF1ADF0AD9CF8D
:103A4000912C812C41E050E0BE016D5E7F4FC8019A
:103A50000E94CC1A4B89842F807C09F06CC04423CF
:103A600031F050E070E060E0C8010E94CC1A8B8910
:103A70008111E8CF42E050E0BE01615F7F4FC80195
:103A80000E94CC1A42E050E0BE01635F7F4FC80144
:103A90000E94CC1A44E050E070E060E0C8010E944F
:103AA000CC1A42E050E0BE016F5E7F4FC8010E9419
:103AB000CC1A8F85988949895A898115914009F0D6
:103AC00043C0CD84DE84DC24CD24DC2481E0C81610
:103AD000D104D1F54115544009F04AC044E050E00A
:103AE000B201C8010E94CC1A21E0A21AB10809F45F
:103AF0006CCEFFEFCF16DF0609F067CE0E948C096F
:103B00003B014C01C8010E94151B181619060CF444
:103B100021CF0E948C0966197709880999096938AB
:103B200073418105910548F562E370E080E090E023
:103B30000E945A09E7CF41E050E070E060E0C80120
:103B40000E94CC1A1B8A93CF54274527542770E034
:103B500060E0C8010E94CC1AFFEF8F1A9F0A681418
:103B6000790409F06FCF96EFC92EDD24DA94BCCF2B
:103B7000E7EFCE2EDD24DA94B7CFCC24CA94DC2C28
:103B8000B3CF6EEFC62EDD24DA94AECF4CEFC42E49
:103B9000DD24DA94A9CF8EEFC82EDD24DA9430CE5E
:103BA000D12CC12C2DCECF92DF92EF92FF920F93AA
:103BB0001F93CF93DF93CDB7DEB7AF970FB6F894CF
:103BC000DEBF0FBECDBF7C016A0100ED11E01A839C
:103BD00009831C861B8688EE93E0A0E0B0E08D8709
:103BE0009E87AF87B88B86EA91E09A878987188F7E
:103BF0000F8B198E1A8E1B8E1C8E84E089A31BA737
:103C00000AA71CA61DA61EA61FA680912E05909190
:103C10002F05A0913005B09131058EA39FA3A8A7D1
:103C2000B9A78B839C83AD83BE8318861F82AE01A8
:103C3000465D5F4FCE0101960E94731B8130910556
:103C4000B1F4D701ED91FC910488F589E02D1DA315
:103C50000CA38CA59DA5AEA5BFA58EA39FA3A8A7C9
:103C6000B9A7A601BE016C5D7F4FC7010995AF964C
:103C70000FB6F894DEBF0FBECDBFDF91CF911F917D
:103C80000F91FF90EF90DF90CF900895CF92DF9249
:103C9000EF92FF920F931F93CF93DF93CDB7DEB7D1
:103CA000AF970FB6F894DEBF0FBECDBF8C016B018E
:103CB0007A0180ED91E09A8389831B821C821D82A8
:103CC0001E821C861B8648EE53E060E070E04D8744
:103CD0005E876F87788B26EA31E03A872987988F4D
:103CE0008F8B198E1A8E1B8E1C8E24E029A39BA706
:103CF0008AA71CA61DA61EA61FA6D8011C968C91DD
:103D0000843060F40E94B111882321F0F801848589
:103D10000E94571184E0D8011C968C9380912E0547
:103D200090912F05A0913005B09131058EA39FA3EE
:103D3000A8A7B9A78B839C83AD83BE8318861F82F7
:103D4000AE01465D5F4FB601CE0101960E94731B26
:103D50000097C1F0D801ED91FC910684F785E02D24
:103D600080ED91E09DA38CA38CA59DA5AEA5BFA5DC
:103D70008EA39FA3A8A7B9A7A701BE016C5D7F4F23
:103D8000C8010995AF960FB6F894DEBF0FBECDBF40
:103D9000DF91CF911F910F91FF90EF90DF90CF9027
:103DA0000895CF93DF931F92CDB7DEB741E050E087
:103DB000BE016F5F7F4FFC0184850E94FE191816BB
:103DC000190634F4898190E00F90DF91CF91089526
:103DD0008FEF9FEFF9CFFC018485843010F40C94B1
:103DE000FE1990E080E00895AF92BF92CF92DF92EB
:103DF000FF920F931F93CF93DF93CDB7DEB76E97EC
:103E00000FB6F894DEBF0FBECDBF5C016B018A0117
:103E10006091F3067091F406CE0140960E94180D51
:103E20001092370380E0282F30E02017310764F428
:103E3000803140F4F901E850FE4F2C0D3D1DD901B1
:103E40009C9190838F5FEFCF809337038B8D85FF9D
:103E50003FC0498D5A8D80ED91E09A8389838D8989
:103E60009E89AF89B88D8B839C83AD83BE83BE0151
:103E70006F5F7F4F80E595E00E94E70B80915F03C5
:103E8000A80181110AC046E050E0B50180E595E047
:103E90000E94EC18A80142505109B60180E595E056
:103EA0000E94EC1880E595E00E947C110E94860D2E
:103EB0006E960FB6F894DEBF0FBECDBFDF91CF91E7
:103EC0001F910F91FF90DF90CF90BF90AF9008951A
:103ED00083FFECCF8770F82E1C821B8288EE93E064
:103EE000A0E0B0E08D839E83AF83B8878EE591E03C
:103EF0009A838983FD8688EE93E09F878E878F2D36
:103F00000E94AD11873191F622E030E0AE01435EB0
:103F10005F4F60E170E08F2D0E9440148D8D9E8D6B
:103F2000982789279827298D3A8D2817390709F06E
:103F3000BDCF80915F03A80181110AC046E050E027
:103F4000B501CE0101960E94D118A8014250510935
:103F5000B601CE0101960E94D118A8CF0F931F93EE
:103F6000CF93DF9300D0CDB7DEB7FC01248524309A
:103F7000E0F48C0180E591E00E94F30622E030E05D
:103F8000AE014F5F5F4F60E170E0F80184850E94F1
:103F9000401489819A819827892798270F900F903C
:103FA000DF91CF911F910F91089590E080E0F6CFBF
:103FB000EF92FF920F931F93CF93DF9300D000D027
:103FC000CDB7DEB78C017B01FB0184858430A8F07E
:103FD00080ED91E0F8019183808312821382148234
:103FE0001582C8010F900F900F900F90DF91CF9125
:103FF0001F910F91FF90EF90089580E591E00E944E
:10400000F30624E030E0AE014F5F5F4F6CE070E0FC
:10401000F70184850E944014BE016F5F7F4FC80185
:104020000E949310DECFCF93DF9300D0CDB7DEB7E1
:1040300022E030E0AE014F5F5F4F64E070E00E942D
:10404000401489819A819827892798270F900F908B
:10405000DF91CF910895CF93DF93FC012485243025
:1040600050F4EC0180E591E00E94F3068C85DF912D
:10407000CF910C94132090E080E0DF91CF910895D0
:10408000FB0101900020E9F73197AF01461B570B68
:10409000DC01ED91FC910280F381E02D09948F9277
:1040A0009F92AF92BF92EF92FF920F931F93CF9385
:1040B000DF93CDB7DEB7A1970FB6F894DEBF0FBE82
:1040C000CDBF7C01FA01CB0119A2223008F42AE00D
:1040D0008E010F5D1F4F822E912CB12CA12CBF01A0
:1040E000A50194010E94CB38F901CA016A300CF590
:1040F000605DD8016E938D01232B242B252B79F73E
:1041000090E080E0109721F0BD01C7010E9440209F
:10411000A1960FB6F894DEBF0FBECDBFDF91CF9151
:104120001F910F91FF90EF90BF90AF909F908F9055
:104130000895695CDECFAB0170E060E02AE00C948A
:104140004F209A01AB01770F660B770B2A303105B0
:1041500009F42AE00C944F20242F462F50E070E001
:1041600060E00C944F208F929F92AF92BF92CF92BB
:10417000DF92EF92FF920F931F93CF93DF937C0117
:10418000EB016C0182E0C80ED11C4701E5E08E0E08
:10419000911C10E000E0F60161916F014AE050E0EF
:1041A000CE010E94AC205C01E881F9810190F08190
:1041B000E02D6EE2CE0109958A0D9B1D080F191F97
:1041C000C814D90441F74AE050E0F7016581CE01F7
:1041D0000E94AC20800F911FDF91CF911F910F9112
:1041E000FF90EF90DF90CF90BF90AF909F908F9017
:1041F00008959C01CB01B9010C94B320FF920F9359
:104200001F93CF93DF93EC018B01F42E6FEE70E0E0
:104210000E94B80740E150E066E270E0CE010E94E3
:10422000A12067EE70E0CE010E94B8074AE050E09E
:104230006F2DCE010E94AC2065EE70E0CE010E9491
:10424000B807B801CE010E94B80767ED70E0CE0153
:10425000DF91CF911F910F91FF900C94B807AF920F
:10426000BF92CF92DF92EF92FF920F931F93CF9363
:10427000DF93EC01A62EB42E690165E870E00E9480
:10428000B80740E150E06A2DCE010E94AC206FE7F4
:1042900070E0CE010E94B8074AE050E06B2DCE01DD
:1042A0000E94AC2069E770E0CE010E94B807B60119
:1042B000CE010E949B2061E770E0CE010E94B8070A
:1042C000B801CE010E949B206DE670E0CE010E94F5
:1042D000B8074AE050E06B2DCE010E94AC206BE69F
:1042E00070E0CE010E94B807B601CE010E949B206B
:1042F00068E670E0CE010E94B807B701CE01DF91F9
:10430000CF911F910F91FF90EF90DF90CF90BF90D2
:10431000AF900C94B8076115710511F00C94402012
:1043200090E080E00895BF92CF92DF92EF92FF92EB
:104330000F931F93CF93DF93CDB7DEB72A970FB6B6
:10434000F894DEBF0FBECDBF8C01653009F493C079
:10435000D8F4633009F451C08AEAC82E83E0D82E1D
:10436000F12C643009F4C2C02A960FB6F894DEBF6F
:104370000FBECDBFDF91CF911F910F91FF90EF90B6
:10438000DF90CF90BF900895663009F4C7C0FF2436
:10439000F394673049F7CF2CC694C694C694D12CB9
:1043A000F601E653FC4F6F01E12CEF2DE770F0E0D2
:1043B000E857FE4FB080F60180818B2121F4809177
:1043C00038038F11F8C08F2D0E94A90CBC01C801C1
:1043D0000E948B2164E372E0C8010E94B8078091BB
:1043E00038038F11E4C063E272E0C8010E94B8078D
:1043F000F39497EFF912CFCFB7CFD12CC12C65E84A
:1044000072E0C8010E94B80780913703C81650F4C3
:10441000F601E850FE4F80810E94A90CBC01C80142
:104420000E948B2161E772E0C8010E94B8078FEFFC
:10443000C81AD80A90E1C916D10409F76FE672E0EC
:10444000C8010E94B80780913703813108F48CCFEE
:104450006CE672E0C8010E94B807609137036051B2
:104460004AE050E0C8010E94AC2065E672E0C80155
:104470000E94B80779CF6091F6017091F7010E9410
:104480009B2061E672E0C8010E94B8074AE050E054
:1044900060E071E0C8010E94A12066E572E0C801F9
:1044A0000E94B8074AE050E06091F501C8010E94FF
:1044B000AC2062E572E0C8010E94B8074AE050E013
:1044C0006AE0C8010E94AC2068E472E0C8010E9462
:1044D000B80780916F06909170069093F7018093D2
:1044E000F6018091F7068093F5013ECFE4E0FE16D9
:1044F00069F0F60140815181628173812AE0C8012F
:104500000E944F206F2DC8010E94400CF394F4E0EC
:10451000CF0ED11C88E0F812E9CF26CFF12C24E091
:1045200030E0AE01495F5F4F6CE070E08F2D0E947C
:1045300040148F818823B9F08F2D0E94AD118232F3
:10454000B9F4BE01695F7F4FCE0101960E949310BE
:10455000BE016F5F7F4FC8010E94F9206FE372E0D8
:10456000C8010E94B807F39494E0F912D8CFFCCEAA
:104570008F2D0E94AD118731B1F78F2D0E9413202E
:104580002091590330915A038217930761F7BE01B6
:10459000695F7F4FCE0101960E949310BE016F5F4D
:1045A0007F4FC8010E94F92066E372E0D9CF6E2DDB
:1045B000C8010E94400CE394FFE1CF0ED11C85E0BE
:1045C000E812F9CE15CF1F93CF93DF93EC01162F8E
:1045D00065E171E00E94B8074AE050E0612FCE012A
:1045E0000E94AC2063E171E0CE010E94B807612F08
:1045F000CE010E9493216BE071E0CE01DF91CF915B
:104600001F910C94B807EF92FF920F931F93CF93D3
:10461000DF93DC011C962C91211108C0DF91CF9112
:104620001F910F91FF90EF900C94B609FC01228529
:1046300033852115310509F446C0558551114AC00D
:1046400007E02F3F310511F008F054C044E002E0CC
:104650002031310508F04BC005E04CC04AE952E07A
:10466000EC0110E0EE24FF24E01AF10A3F932F93AF
:104670005F934F938E819F818E0D9F1D9F938F938C
:104680000E941436EE81FF8131978AE080830F907B
:104690000F900F900F900F900F908D8581111D86B8
:1046A0008C819D814A855B85400F511F6E817F8182
:1046B0006E0D7F1DDC01ED91FC910280F381E02DF8
:1046C00009951B861A86DF91CF911F910F91FF905C
:1046D000EF90089505E02F3F310511F008F0BECFAF
:1046E00004E02031310508F0B9CF42E001E0040FC9
:1046F0005111B4CF44E952E0B3CF0F931F93CF933E
:10470000DF93EC018A859B85892B19F0CE010E94ED
:1047100003238C85882369F00C811D8160E17DE095
:10472000C8010E94B80762EE71E0C8010E944020F3
:104730001C86DF91CF911F910F910895FF920F93E7
:104740001F93CF93DF93EC01F62E08811981C801E6
:104750000E94B538F81621F06F2DC8010E94BD38AF
:10476000CE01DF91CF911F910F91FF900895EF92AD
:10477000FF920F931F93CF93DF9300D0CDB7DEB797
:1047800080E097E9A9E4B1E08093810390938203EC
:10479000A0938303B09384030E948C0960937D03EC
:1047A00070937E0380937F0390938003809129030D
:1047B00090912A03A0912B03B0912C030196A11D87
:1047C000B11D8093290390932A03A0932B03B093E8
:1047D0002C0329E2E22E23E0F22E00E610E01A83F9
:1047E0000983F70161917F01CE0101960E949E230A
:1047F0000F5F1F4F0436110591F71A83098366E096
:10480000CE0101960E949E2395E4E92E93E0F92EB5
:1048100005E610E01A830983F70161917F01CE015B
:1048200001960E949E230F5F1F4F0938110591F7D3
:104830008AEAE82E83E0F82E1A830983F701619152
:104840007F01CE0101960E949E230F5F1F4F093A00
:10485000110591F70F900F90DF91CF911F910F915C
:10486000FF90EF900895EAEAF3E080E2DF011D9205
:104870008A95E9F70C94B7231F920F920FB60F9207
:1048800011242F933F934F935F936F937F938F9355
:104890009F93AF93BF93EF93FF9385E694E00E94BD
:1048A0005A08FF91EF91BF91AF919F918F917F91A6
:1048B0006F915F914F913F912F910F900FBE0F908D
:1048C0001F9018951F920F920FB60F9211242F93DD
:1048D0008F939F93EF93FF93E0917504F09176048B
:1048E0008081E0917B04F0917C0482FD1BC090816B
:1048F00080917E048F5F8F7320917F04821741F037
:10490000E0917E04F0E0EB59FB4F958F80937E049D
:10491000FF91EF919F918F912F910F900FBE0F906C
:104920001F9018958081F4CF1F920F920FB60F92AF
:1049300011242F933F938F939F93AF93BF938091B5
:104940000F0290911002A0911102B09112023091C9
:104950000E0223E0230F2D3758F50196A11DB11D3E
:1049600020930E0280930F0290931002A0931102E5
:10497000B09312028091130290911402A09115023B
:10498000B09116020196A11DB11D80931302909360
:104990001402A0931502B0931602BF91AF919F919C
:1049A0008F913F912F910F900FBE0F901F901895F0
:1049B00026E8230F0296A11DB11DD2CF1F920F92A0
:1049C0000FB60F9211242F938F939F93AF93BF93A2
:1049D0008091170281508093170280911802909164
:1049E0001902A0911A02B0911B02BA2FA92F982F79
:1049F00088278093180290931902A0931A02B0930B
:104A00001B02209184008091180290911902A091BC
:104A10001A02B0911B028227809318029093190208
:104A2000A0931A02B0931B02BF91AF919F918F91F7
:104A30002F910F900FBE0F901F9018951092680441
:104A40001092670488EE93E0A0E0B0E080936904E0
:104A500090936A04A0936B04B0936C0484E991E092
:104A6000909366048093650485EC90E090937204C3
:104A70008093710484EC90E09093740480937304A9
:104A800080EC90E0909376048093750481EC90E044
:104A9000909378048093770482EC90E090937A046A
:104AA0008093790486EC90E090937C0480937B045F
:104AB00010927E0410927F04109280041092810460
:104AC00080ED91E090930305809302051092040518
:104AD000109205051092060510920705909309059E
:104AE0008093080510920A0510920B0510920C0590
:104AF00010920D0590930F0580930E0510921005EE
:104B0000109211051092120510921305909315053D
:104B1000809314051092160510921705109218052F
:104B20001092190590931B0580931A0510921C058D
:104B300010921D0510921E0510921F0590932105DD
:104B400080932005109222051092230510922405CF
:104B5000109225059093270580932605109228052D
:104B60001092290510922A0510922B059093330577
:104B70008093320510923405109235051092360557
:104B80001092370590932D0580932C0510922E05D9
:104B900010922F051092300510923105909339052F
:104BA0008093380510923A0510923B0510923C050F
:104BB00010923D0590933F0580933E05109240056D
:104BC0001092410510924205109243059093F90608
:104BD0008093F8061092FA061092FB061092FC06DB
:104BE0001092FD06E1E7F6E0948383831582168236
:104BF000178210863D9626E0E33FF207A9F721E7EA
:104C000036E03093F4062093F3063093F6062093B3
:104C1000F5061092F7062BE635E030936C062093EC
:104C20006B0630936E0620936D06109270061092FC
:104C30006F06109253051092520548EE53E060E063
:104C400070E040935405509355056093560570935A
:104C5000570526EA31E03093510520935005909393
:104C60005F0580935E0510926005109261051092B9
:104C700062051092630584E08093680510924D05EB
:104C800010924C0586ED91E090934B0580934A0578
:104C900026EF31E030934F0520934E0510924705E3
:104CA00010924605909345058093440580E590E079
:104CB00090934905809348050895CF93DF93CDB72E
:104CC000DEB7C155D1400FB6F894DEBF0FBECDBFE1
:104CD000789484B5826084BD84B5816084BD85B5D7
:104CE000826085BD85B5816085BD80916E008160E3
:104CF00080936E0010928100809181008260809389
:104D0000810080918100816080938100809180008A
:104D10008160809380008091B10084608093B100B5
:104D20008091B00081608093B00080917A008460AF
:104D300080937A0080917A00826080937A008091DB
:104D40007A00816080937A0080917A0080688093F5
:104D50007A001092C100109218021092190210925B
:104D60001A0210921B0280E280931702F89414BE7C
:104D70008091600088618093600080E4809360008F
:104D80007894809117021816E4F3F89414BE809179
:104D9000600080618093600010926000789480E6EB
:104DA00090E00E94B5388093290381E690E00E944C
:104DB000B53880932A0382E690E00E94B53880934C
:104DC0002B0383E690E00E94B53880932C0384E6A1
:104DD00090E00E94B538863009F0F3C015E4E12E6A
:104DE00013E0F12E05E610E0C8010E94B538D701A6
:104DF0008D937D010F5F1F4F09381105A9F7BAEA9E
:104E0000EB2EB3E0FB2EC8010E94B538F701819369
:104E10007F010F5F1F4F093A1105A9F70E945B0E32
:104E20000E94EF163E01FBEF6F1AFEEF7F0A93011F
:104E3000295E3F4FC25BDE4F39832883CE54D14079
:104E40004BE351E04C0F5D1F4E5F5F4FC05BDE4F89
:104E500059834883C055D1406E0153EEC51A5EEFA9
:104E6000D50A10913803112309F44CC09091F7062C
:104E70008AE0891B823008F445C020916F0630918A
:104E8000700680E091E0821B930B0797D8F1809128
:104E90003603811137C081E08093360319821A826C
:104EA00086E08B8380ED91E09D838C831E821F8240
:104EB000188619861B861A8680E48C871D86CE018B
:104EC00001960E94F606812F0E945507A4E0EA2E63
:104ED000A1E0FA2ED7018D917D010E945507B9E01E
:104EE000EB16B1E0FB06B1F780910401833009F0C5
:104EF00076C084E08093040180913803883F11F4E8
:104F0000109238030E94350900912D0310912E0351
:104F100020912F0330913003601B710B820B930B98
:104F20000091310310913203209133033091340307
:104F3000061717072807390708F05FC08091F706A2
:104F4000882309F45AC06091F3067091F406C301F6
:104F50000E94180D10911E02113009F48EC008F045
:104F600046C00BE615E080913503882309F462C042
:104F70006091F3067091F406CE0101960E94180D1F
:104F80008C8587FD57C0F12C6091F3067091F40673
:104F9000CE0101960E94180D8B81F81608F064C0AE
:104FA00020916F0630917006E0916B06F0916C06CF
:104FB0002115310509F042C080810E945507F39404
:104FC000E3CF84E2E6E3F1E0A5E4B3E001900D92E3
:104FD0008A95E1F70E94DC0D0E94B7231FCF83E082
:104FE0008093040181E0810F8093380385CF1230D4
:104FF00009F4C0C0133009F442C180E595E00E9475
:10500000151B5C01892B09F442C244E051E0BE014A
:105010006F5F7F4F80E595E00E94CC1A8091690513
:1050200090916A05892B09F49EC180E595E00E9464
:10503000EB1AF4CF81E080931E02DFCFAF014F5F08
:105040005F4F50936C0640936B0680814B565640E1
:1050500020F010936C0600936B06215031093093B9
:10506000700620936F06A9CFCE0101960E943F0DD6
:10507000CE0101960E94F60676CF85E694E00E9466
:1050800009081816190684F480911C0290911D02DB
:10509000892B51F461E087E00E94E9088FEF9FEFD0
:1050A000909344038093430385E694E00E940908AB
:1050B000181619065CF400911C0210911D02D30110
:1050C00012968C918017110609F014F585E694E08C
:1050D0000E940908029784F585E694E00E94090879
:1050E000CF9709F08ACFD30112962C9180911C02A0
:1050F00090911D02281719060CF07FCF10921D0207
:1051000010921C0285E694E00E94C90882E093CFC9
:10511000C8010E949B07682F85E694E00E947C08E6
:10512000C8010E949B070E94C50C0F5F1F4F109380
:105130001D0200931C02B8CFF301028110E08091A0
:105140001C0290911D020817190731F66091430364
:10515000F090440385E694E00E947C086F2D85E67C
:1051600094E00E947C080F5F1F4F10931D02009374
:105170001C02B2CF60E087E00E94E908F301848559
:105180008F5F8487CE0101960E943F0DB301CE014F
:1051900001960E94180D8091F3069091F4068157B4
:1051A000964031F483EF96E09093F4068093F306F3
:1051B0008091F3069091F406FC013D97F093F4067C
:1051C000E093F306298120832A81DC011C972C932C
:1051D0002B8122830A974E815F8168857985DC0166
:1051E00012964D935D936D937C9315978A859B855D
:1051F000928781878C8583878D8584878091F70648
:105200008A3091F58091F5069091F606B6E08137E7
:105210009B0739F10D979093F6068093F506209140
:10522000660330916703F301838586FF02C028EC93
:1052300030E0A8EEB3E00E942F3960933103709301
:10524000320380933303909334030E9435096093B3
:105250002D0370932E0380932F039093300383E0EC
:10526000EACE86EE96E0D7CF91E0980F9093F706BE
:105270008111D5CF8091F3069091F406CCCFD30164
:105280001B968C9186FF05C00E94860D10921E020F
:10529000B4CEF301F4840091680390E080E00E94B2
:1052A0009B0740E0F01608F45AC063E00E943D0FEF
:1052B0001B821C821D821E821E83D3018C918983D6
:1052C00011968C918A8385E0F60111928A95E9F70F
:1052D0008BE0D60112968C9390E080E00E949B07B1
:1052E000182FF601808381E090E00E949B07805890
:1052F000D60111968C938FEF9FEF90934403809388
:105300004303812F0E94C50CF60181810E94C50CC8
:10531000D60112968C910E94C50C90914303809106
:105320004403F6019383848345E050E0B601CE0147
:1053300001960E94F41E8091BE039091BF03A0913C
:10534000C003B091C1030196A11DB11D8093BE039E
:105350009093BF03A093C003B093C10397CF64E0C1
:105360000E943D0FE8CF00916405109165052091E2
:105370006005309161054091620550916305F0E24E
:10538000EF2EB501CE0101960E947B0FB82E882327
:1053900009F47DC0409164055091650580ED91E070
:1053A000D3018D939C938091600590916105A091AC
:1053B0006205B0916305F30182839383A483B5836F
:1053C000B30180E595E00E94E70B80915F038111B6
:1053D0000EC045E050E0BE016F5F7F4F80E595E075
:1053E0000E94EC1863E080E595E00E94990B009123
:1053F0005F0381E08027082F000F080F000F10E0E7
:10540000EE24E394F12CEC0EFD1EE00EF11ED7010C
:105410006C9180E595E00E94990B0F5F1F4FE1E0D2
:10542000F0E0EC0FFD1F0E0F1F1FD8016C916058AC
:1054300080E595E00E94990B6B2D80E595E00E9438
:10544000990B80915F038823F1F08FEF9FEF90938A
:10545000440380934303F70180810E94C50CD80167
:105460008C9180580E94C50C8B2D0E94C50C6091B8
:10547000430380E595E00E94990B6091440380E529
:1054800095E00E94990B80E595E00E947C1185E6ED
:1054900094E00E943A08181619060CF05AC085E6E6
:1054A00094E00E94180820912703309128032F3F91
:1054B000310509F054F4F901E95DFD4F80832F5F58
:1054C0003F4F3093280320932703009162031091EC
:1054D00063032EEE32E040E050E0013C110568F439
:1054E0000E94410E282F30E0A8E9BAE30E942F392C
:1054F000980150E040E00E94CB3820932302309383
:10550000240240932502509326020E94350960939D
:105510001F02709320028093210290932202209117
:10552000650330E0A8EEB3E00E942F3960933103A9
:105530007093320380933303909334030E943509B0
:1055400060932D0370932E0380932F039093300369
:105550009ECF0E94350900911F02109120022091D8
:10556000210230912202601B710B820B930B009180
:105570002302109124022091250230912602061761
:10558000170728073907D0F5009127031091280342
:105590000115110599F16091F3067091F406CE01A1
:1055A00001960E94180DB80187E292E00E94DF0C7C
:1055B000882369F0F090270290E080E00E949B072A
:1055C000F81205C080911E02833009F470C08091EA
:1055D000C2039091C303A091C403B091C503019687
:1055E000A11DB11D8093C2039093C303A093C40374
:1055F000B093C50310922803109227037DE6E72E8F
:1056000073E0F72E29E633E0C45BDE4F398328834D
:10561000CC54D14034E0C85BDE4F3883C854D1400D
:1056200044E0C55BDE4F4883CB54D14054E0C65BB9
:10563000DE4F5883CA54D14084E0C75BDE4F888375
:10564000C954D140212C312C2101C95BDE4F188275
:10565000C754D14010E0812F0E94AD11082F0E9445
:105660008C09D7018D909D90AD90BD907D019B01DF
:10567000AC01281939094A095B0949015A01C45B7F
:10568000DE4FA881B981CC54D1408D91C45BDE4FEF
:10569000B983A883CC54D140882389F10E948C0916
:1056A000F7013497608371838283938335C08C853F
:1056B000807490912802913820F040E061E08823C6
:1056C00029F041E0811101C040E060E08F2D0E948F
:1056D0003D0FF30113821282898180838A81818345
:1056E000C801029794838EEF800F8583A80167E23B
:1056F00072E0C3010E94F41E10921E027BCF08319B
:1057000009F4A4C008F09CC0043109F4C7C008F033
:1057100068C0002309F4B6C01F5F143009F09BCFA6
:10572000C85BDE4FB881C854D140B43009F467C3B8
:105730004E01E4ED8E1AEEEF9E0AD40113961C92F0
:105740001E92129728EE33E040E050E014962D931D
:105750003D934D935C9317978EE591E011969C9342
:105760008E93C85BDE4FE881C854D1401C96EC9301
:105770001C9788EE93E01E969C938E931D978E2F18
:105780000E94132020915D0330915E0382179307DE
:1057900011F00C94433588E1D3011D928A95E9F705
:1057A000C4010E94F519892B09F0DFC08301C401EF
:1057B0000E94F519892B09F4DFC0C25BDE4FE88136
:1057C000F981CE54D1400E171F0709F4D5C0C4018A
:1057D0000E94D11E803209F4CFC0D8018D938D0173
:1057E000E6CF063109F45AC0073109F095CF1C8283
:1057F0001B8228EE33E040E050E02D833E834F8350
:1058000058874EE551E05A8349831D8788EE93E01F
:105810009F878E87CE0101960E94F51918161906EA
:105820000CF055C00E948C09F70134976083718396
:1058300082839383C85BDE4F1883C854D1406CCFFA
:105840000C31A9F2E0F40A3108F466CFC95BDE4FEF
:10585000E881C754D140EF5FC95BDE4FE883C7548E
:10586000D14060E170E0F5EF8F16F1E09F06A104F2
:10587000B10408F451CF812F0E9447110FCF0D3191
:1058800029F34ACFC95BDE4FB881C754D140BF5F0F
:10589000C95BDE4FB883C754D1403ECF0E948C090C
:1058A000F70134976083718382839383812F0E94F1
:1058B000132020915D0330915E038217930709F056
:1058C0004EC0C55BDE4F1883CB54D14025CF0C3181
:1058D00071F4C95BDE4F9881C754D1409F5FC95BAB
:1058E000DE4F9883C754D14068E070E0C4CF812F69
:1058F0000E94132020915D0330915E03821793076D
:10590000A9F4A1E98A16A1E09A06A104B10470F0F5
:10591000281439044A045B0408F0FECEC75BDE4F4E
:105920001883C954D14014012501F6CE812F0E945D
:1059300013202091590330915A038217930709F0DD
:10594000EBCE2091600330916103A8EEB3E00E949A
:105950002F39681579058A059B05D0F2DDCEC65B27
:10596000DE4F1883CA54D140D7CEC4010E94D11E45
:10597000809709F015CF1ACFC4010E94F519892B21
:10598000A1F0C4010E94D11E0D97B1F7C4010E947D
:10599000D11E0A9789F7C4010E94D11E0D9761F7A5
:1059A000C4010E94D11E0A9739F7C4010E94F5195B
:1059B000892B09F4A8C1C4010E94F519892B09F4A7
:1059C0005CC18E010F5F1F4F7801212C5801C4016B
:1059D0000E94F519892B69F0B7E12B1651F0C4012B
:1059E0000E94D11E863229F0F70181937F01239412
:1059F000EECFF801E20DF11D10827801D8018D91F2
:105A00008D01882319F07D018D33B9F7F70180816D
:105A1000882389F2C5010E941E0C082FC7010E942D
:105A2000D8351B012C019B01802F90E0EEEFE00F99
:105A3000E53208F6F0E0E15EF24D0C943E39552D6A
:105A4000552D552D552D5E2D5E2D5E2D5E2D582D1F
:105A5000582D582D582DDB2CDB2CDB2CDB2C632D0B
:105A6000A92DBA2DD22DD92DDE2D0C2E172E222E9A
:105A70002F2E322E372E442D442D442D442D442DCF
:105A8000442D442D442D3A2E0D51009341030150D5
:105A9000110B80E0E114F10419F0C7010E941E0C03
:105AA000F801E75CFC4F808386CFF4E0F09342037B
:105AB0008B5B9C4FDC0111962C927DCF8B5B9C4FB6
:105AC000FC01218278CF80915D0390915E032816BE
:105AD000390609F470CF8091590390915A03281622
